:100000000C9457010C9488010C9488010C9488017D
:100010000C9488010C9488010C9488010C9488013C
:100020000C9488010C9488010C9488010C9488012C
:100030000C9488010C9488010C9488010C9488011C
:100040000C9488010C94B7090C9488010C948801D5
:100050000C9488010C9488010C9488010C94E3089A
:100060000C9488010C94AD080C9483080C948801BE
:100070000C9488010C9488010C9488010C948801DC
:100080000C9489090C9488010C9488010C948801C3
:100090000C9488010C9488010C9488010C948801BC
:1000A0000C9488010C9488010C945B090C948801D1
:1000B0000C9488010C9488010C9488010C942D09EF
:1000C0000C9488010C9488010C9488010C9488018C
:1000D0000C9488010C9488010C9488010C9488017C
:1000E0000C9488010C9454020C94CF030C9463027A
:1000F0000C9495040C94C2040C94BD020C94A904B5
:100100000C948B040C9490030C9450040C945D0498
:100110000C9485020C94D7030C94B7030C94B10390
:100120000C94D3030C940A030C94AE030C94710446
:100130000C949F040C94E1030C94C5030C94CC0420
:100140000C94DD030C9477020C94B8040C945804BE
:100150000C94D6040C94A2030C94C1030C942702B3
:100160000C94E0040C94C9030C94E5090C948B03E3
:100170000C94A6030C9483040C94EA040C947B0462
:100180000C94AA030C94BB030C9467040000210098
:10019000240027002A002D00300033000101000058
:1001A000040107010A0100002200250028002B009D
:1001B0002E003100340002010000050108010B018E
:1001C00000000A0B02090C0D0E08070304010000D1
:1001D000000000000000000000000000000000001F
:1001E00000000000000000000000000012111000DC
:1001F00000000000000000000000000000000000FF
:10020000000000000000000020002300260029005C
:100210002C002F003200000100000301060109013B
:1002200005050505070508080808020202020A0A72
:100230000808040404040101010101010101030390
:10024000030303030303040707070C0C0C0C0C0C3B
:100250000C0C0202020206060606060606060B0B38
:100260000B0B0B0B0B0B0102102020080810204079
:10027000102040800201020108040201010204086A
:1002800010204080804020100804020180040201F8
:100290008040201008040201080402010102040841
:1002A000102040800102040810204080E50911243C
:1002B0001FBECFEFD1E2DEBFCDBF00E00CBF13E029
:1002C000A0E0B2E0E4E3F0E200E00BBF02C0079080
:1002D0000D92A837B107D9F724E0A8E7B3E001C031
:1002E0001D92A93CB207E1F711E0C7E5D1E000E0BB
:1002F00006C021970109802FFE010E941010C6350B
:10030000D10780E00807A9F70E945E0A0C94181034
:100310000C9400008F929F92AF92BF92FF920F9326
:100320001F93CF93DF93F090B3042FE22F1508F4BF
:100330004CC02091B50408E512E0021B110927FD0D
:100340001395000F111F000F111F2091B404C8E86E
:10035000D0E0C21BD10927FDD395CC0FDD1FCC0FF8
:10036000DD1F4E010D2E000CAA08BB089801012EBE
:10037000000C440B550B281939094A095B09DC01AB
:100380000E948F0D24EB30E040E050E00E94650DAC
:10039000820E931EA41EB51E8C169D062CF0E8013D
:1003A000801691060CF4E4012297CC0FDD1F2FB7C5
:1003B000F8948F2D90E0FC01EE0FFF1FE80FF91F5E
:1003C000EE5DFB4FD283C1832FBFDF91CF911F9191
:1003D0000F91FF90BF90AF909F908F900895CF9214
:1003E000DF92EF92FF92CF93DF93B091BD04A0E034
:1003F0008111AB2F8091BE0490E0880F991FAC0152
:100400004A5F5D4FC090C304D090C404E090C5041F
:10041000F090C60430E020E0FA01C591D491E88163
:10042000B90190E080E0EB23EA130AC02F5F3F4F51
:100430006C157D058E059F0578F36FEF7FEFCB017F
:10044000DF91CF91FF90EF90DF90CF900895AF9222
:10045000BF92CF92DF92EF92FF920F931F93CF93B1
:10046000DF936C017B018B01040F151FEB015E0113
:10047000AE18BF08C017D10759F06991D601ED91A8
:10048000FC910190F081E02DC6011995892B79F737
:10049000C501DF91CF911F910F91FF90EF90DF90F9
:1004A000CF90BF90AF900895FC01538D448D252FC0
:1004B00030E0842F90E0821B930B541710F0CF96FE
:1004C000089501970895FC01918D828D981761F030
:1004D000A28DAE0FBF2FB11D5D968C91928D9F5F47
:1004E0009F73928F90E008958FEF9FEF0895FC0126
:1004F000918D828D981731F0828DE80FF11D858DD9
:1005000090E008958FEF9FEF0895FC01918D228D6B
:10051000892F90E0805C9F4F821B91098F739927F0
:10052000089585E893E00E94850221E0892B09F473
:1005300020E0822F0895FC01A48DA80FB92FB11DD2
:10054000A35ABF4F2C91848D90E001968F73992709
:10055000848FA689B7892C93A089B1898C918370E7
:1005600080648C93938D848D981306C00288F389E0
:10057000E02D80818F7D80830895EF92FF920F930D
:100580001F93CF93DF93EC0181E0888F9B8D8C8D3F
:1005900098131AC0E889F989808185FF15C09FB733
:1005A000F894EE89FF896083E889F98980818370F6
:1005B000806480839FBF81E090E0DF91CF911F91A5
:1005C0000F91FF90EF900895F62E0B8D10E00F5FC6
:1005D0001F4F0F731127E02E8C8D8E110CC00FB69C
:1005E00007FCFACFE889F989808185FFF5CFCE0134
:1005F0000E949B02F1CFEB8DEC0FFD2FF11DE35A12
:10060000FF4FF0829FB7F8940B8FEA89FB898081B6
:100610008062CFCFCF93DF93EC01888D8823B9F030
:10062000AA89BB89E889F9898C9185FD03C08081FD
:1006300086FD0DC00FB607FCF7CF8C9185FFF2CF7A
:10064000808185FFEDCFCE010E949B02E9CFDF9133
:10065000CF91089580E090E0892B29F00E949102CB
:1006600081110E94000080E090E0892B49F080E039
:1006700090E0892B29F00E94000081110E94000067
:1006800080E090E0892B49F080E090E0892B29F010
:100690000E94000081110E94000080E090E0892B00
:1006A00049F080E090E0892B29F00E940000811140
:1006B0000C9400000895282F30E0F901E054FE4F1B
:1006C0009491F901EA59FD4F4491205E3D4FF901A3
:1006D0002491222309F435C0992311F191509231CC
:1006E000F8F4E92FF0E08827E758FC4F8F4F0C947F
:1006F0001010AA03AE038B03A203A6039003B10359
:10070000B703BB03C103C503C903CF03D3039003DE
:10071000D703DD03E103809180008F778093800011
:10072000E22FF0E0EE0FFF1FEA55FE4FA591B491C6
:100730008FB7F894EC91611148C040954E234C93CB
:100740008FBF0895809180008F7DE8CF80918000D9
:10075000877FE4CF84B58F7784BDE2CF84B58F7D6A
:10076000FBCF8091B0008F778093B000D9CF80917C
:10077000B0008F7DF9CF809190008F7780939000AB
:10078000CFCF809190008F7DF9CF80919000877FAF
:10079000F5CF8091A0008F778093A000C1CF80918A
:1007A000A0008F7DF9CF8091A000877FF5CF809149
:1007B00020018F7780932001B3CF809120018F7D1E
:1007C000F9CF80912001877FF5CF4E2BB8CFCF9303
:1007D000DF9390E0FC01EA59FD4F2491805E9D4F2C
:1007E000FC0184918823D1F090E0880F991FFC01CF
:1007F000E457FE4FA591B491FC01EA55FE4FC59117
:10080000D491623071F49FB7F8943C91822F809517
:1008100083238C93E8812E2B28839FBFDF91CF9178
:1008200008958FB7F894EC912E2B2C938FBFF6CFB1
:100830001F93CF93DF93182FEB0161E00E94E70332
:10084000209739F460E0812FDF91CF911F910C94B4
:100850005B03CF3FD10511F461E0F5CFE12FF0E06C
:10086000E054FE4FE491E150E23108F0B3C0F0E013
:100870008827E25CFB4F8F4F0C94101050045804F3
:100880005D0467047104EA047B0483048B0495040B
:100890009F04A904B804C204EA04CC04D604E0040A
:1008A00084B5806884BDC7BDDF91CF911F91089545
:1008B00084B5806284BDC8BDF7CF80918000806818
:1008C00080938000D0938900C0938800EDCF809101
:1008D0008000806280938000D0938B00C0938A0058
:1008E000E3CF80918000886080938000D0938D005A
:1008F000C0938C00D9CF8091B00080688093B00005
:10090000C093B300D1CF8091B00080628093B000DB
:10091000C093B400C9CF809190008068809390000C
:10092000D0939900C0939800BFCF809190008062CF
:1009300080939000D0939B00C0939A00B5CF809194
:100940009000886080939000D0939D00C0939C009D
:10095000ABCF8091A00080688093A0008091A00020
:100960008F7B8093A000D093A900C093A8009CCF58
:100970008091A00080628093A000D093AB00C093D0
:10098000AA0092CF8091A00088608093A000D093AD
:10099000AD00C093AC0088CF809120018068809327
:1009A0002001D0932901C09328017ECF809120019E
:1009B000806280932001D0932B01C0932A0174CFD1
:1009C00080912001886080932001D0932D01C093F5
:1009D0002C016ACFC038D1050CF03ECF33CF3FB7E2
:1009E000F89480917D0390917E03A0917F03B09154
:1009F000800326B5A89B05C02F3F19F00196A11DC5
:100A0000B11D3FBFBA2FA92F982F8827BC01CD0158
:100A1000620F711D811D911D42E0660F771F881FB7
:100A2000991F4A95D1F708958F929F92AF92BF92E6
:100A3000CF92DF92EF92FF924B015C010E94EF0494
:100A40006B017C010E94EF046C197D098E099F09DE
:100A5000683E734081059105A8F321E0821A910850
:100A6000A108B10888EEC80E83E0D81EE11CF11C75
:100A700081149104A104B10429F7FF90EF90DF9055
:100A8000CF90BF90AF909F908F900895CF92DF92BC
:100A9000EF92FF920F931F93CF93DF93CDB7DEB703
:100AA000C054D1400FB6F894DEBF0FBECDBF2FB7F4
:100AB000F8948091810390918203A0918303B09177
:100AC00084032FBF4091BF045091C0046091C104C2
:100AD0007091C2048C019D01041B150B260B370B72
:100AE000B901A801403D57406105710590F480911E
:100AF000C704C05CDE4F0FB6F894DEBF0FBECDBF9B
:100B0000DF91CF911F910F91FF90EF90DF90CF90E9
:100B100008958093BF049093C004A093C104B09340
:100B2000C2041092BA041092B9041092B804109240
:100B3000B7041092B60462E08091BB040E94E70300
:100B400061E070E080E090E00E94140561E0809137
:100B5000BB040E94E70360E08091BB040E945B033A
:100B60008091BC048551823020F58BE291E10197A0
:100B7000F1F762E08091BB040E94E7038091C80412
:100B800090E08230910538F0880F991F880F991FE7
:100B900005970197F1F7F89480E00E94EF016F3F0D
:100BA0007F4F8F4F9F4F61F41092C704789480E07D
:100BB000A0CF64E170E080E090E00E941405D9CFFE
:100BC00081E00E94EF016F3F7F4F8F4F9F4F61F396
:100BD0008E010F5F1F4F6E018FEBC81A8EEFD80A80
:100BE000780180E00E94EF01F701608371838283C6
:100BF000938381E00E94EF01F7016483758386830C
:100C00009783F8E0EF0EF11CEC14FD0451F7789493
:100C100030E020E0F801C080D180E280F3804481A0
:100C2000558166817781FFEFCF16DF06EF06FF065D
:100C300031F04F3F8FEF58076807780719F410928B
:100C4000C704B5CFF90183E0F595E7958A95E1F7FB
:100C5000EA54FB4F8081880FC416D506E606F706D6
:100C600010F180832F5F3F4F085F1F4F28323105FF
:100C700089F64091BA042091B6048091B704280FF8
:100C80003327331F8091B804280F311D8091B90498
:100C9000820F932F911D99274817190681F681E03D
:100CA0008093C70426CF8160DCCFAF92BF92CF92F2
:100CB000DF92EF92FF920F931F93CF93DF936B011D
:100CC0007A01EC01C858DC4F28813CE0389F800154
:100CD000399F100D1124A090B204B12C27FF1FC022
:100CE000FB011182108288818F5F8883888198013F
:100CF000280F311D87FD3A95F6012A153B051CF496
:100D000088818C30C4F180819181049680349C4923
:100D100008F473C0F60180819181049670C08881C7
:100D20009801280F311D87FD3A952A153B05DCF601
:100D30008881A801480F511D87FD5A95FA01EE0FD1
:100D4000FF1FE40FF51FEE5DFB4F808186FFCBCFC9
:100D50008881F801E80FF11D87FDFA95CF01EE0FAC
:100D6000FF1FE80FF91FEE5DFB4F808160E08F737E
:100D70000E945B03B8CF808191812881A801420F36
:100D8000511D27FD5A959A01FA01EE0FFF1FE20F40
:100D9000F31FEE5DFB4F21813281820F931FF7011C
:100DA0009183808388819801280F311D87FD3A95B2
:100DB000F901EE0FFF1FE20FF31FEE5DFB4F808185
:100DC00086FF22C08881080F111D87FD1A95F80142
:100DD000EE0FFF1FE00FF11FEE5DFB4F808161E022
:100DE0008F73DF91CF911F910F91FF90EF90DF9064
:100DF000CF90BF90AF900C945B0380E49CE9F70127
:100E0000918380838FEF8883DF91CF911F910F9122
:100E1000FF90EF90DF90CF90BF90AF900895FC01CE
:100E200001900020E9F73197AF01481B590BBC0135
:100E300085E893E00C9427028F929F92AF92BF9225
:100E40000F931F93CF93DF93CDB7DEB7A1970FB664
:100E5000F894DEBF0FBECDBF19A2423008F44AE0BD
:100E60008E010F5D1F4F842E912CB12CA12CA5015A
:100E700094010E94970DE62FB901CA01EA30F4F4FB
:100E8000E05DD801EE938D01232B242B252B79F7E0
:100E900090E080E0109719F0CD010E940F07A19615
:100EA0000FB6F894DEBF0FBECDBFDF91CF911F917B
:100EB0000F91BF90AF909F908F900895E95CE1CF24
:100EC000CF92DF92EF92FF92CF93DF936B017C0181
:100ED0006DE285E893E00E94BD02EC01662777276A
:100EE000CB016C197D098E099F094AE00E941C07FD
:100EF0008C0F9D1FDF91CF91FF90EF90DF90CF90EF
:100F00000895CF93DF930E940F07EC0182E192E0F6
:100F10000E940F078C0F9D1FDF91CF910895CF93F3
:100F2000DF93BC01990F880B990B97FF0CC00E94AF
:100F30006007EC0182E192E00E940F078C0F9D1F79
:100F4000DF91CF9108954AE00E941C07F2CF4F92A3
:100F50005F926F927F928F929F92AF92BF92CF9249
:100F6000DF92EF92FF920F931F93CF936B017C015F
:100F7000742EAC019B010E94FF0F882399F085E13C
:100F800092E0CF911F910F91FF90EF90DF90CF9063
:100F9000BF90AF909F908F907F906F905F904F9099
:100FA0000C940F0746015701E894B7F82FEF3FEF75
:100FB0004FE75FE7C501B4010E94FF0F81110DC02B
:100FC0002FEF3FEF4FE75FE7C501B4010E94350EF9
:100FD00018161CF489E192E0D4CF2FEF3FEF4FE7D2
:100FE0005FE4C701B6010E948D0F18161CF48DE155
:100FF00092E0C7CF2FEF3FEF4FE75FECC701B6019D
:101000000E94350E87FDF3CF20E030E0A901C70133
:10101000B6010E94350E10E000E087FF0AC06DE2C5
:1010200085E893E00E94BD028C01F7FAF094F7F88E
:10103000F094C0E060E070E080E09FE37C1641F057
:1010400020E030E040E251E40E943A0ECF5FF6CF5C
:10105000A70196010E94C90D2B013C010E94AC0E14
:101060004B015C014AE00E941C077C01E00EF11E6E
:10107000CC23C1F1C501B4010E94DB0E9B01AC0180
:10108000C301B2010E94C80D4B015C016EE285E80C
:1010900093E00E94BD02E80EF91EC15018F120E055
:1010A00030E040E251E4C501B4010E94920F2B01EF
:1010B0003C010E94AC0E4B01B12CA12C4AE0C501B1
:1010C000B4010E941C07E80EF91EC501B4010E947C
:1010D000DB0E9B01AC01C301B2010E94C80D4B01A4
:1010E0005C01DBCFC701CF911F910F91FF90EF9073
:1010F000DF90CF90BF90AF909F908F907F906F9038
:101100005F904F9008951F920F920FB60F92112487
:101110000BB60F922F933F934F935F936F937F93F1
:101120008F939F93AF93BF93EF93FF9385E893E0E3
:101130000E949B02FF91EF91BF91AF919F918F9180
:101140007F916F915F914F913F912F910F900BBEC7
:101150000F900FBE0F901F9018951F920F920FB611
:101160000F9211240BB60F922F938F939F93EF93AF
:10117000FF93E0919503F09196038081E0919B03AA
:10118000F0919C0382FD1DC0908180919E038F5F32
:101190008F7320919F03821741F0E0919E03F0E04E
:1011A000EB57FC4F958F80939E03FF91EF919F919A
:1011B0008F912F910F900BBE0F900FBE0F901F902D
:1011C00018958081F2CF1F920F920FB60F921124C3
:1011D0002F933F938F939F93AF93BF9380918103FE
:1011E00090918203A0918303B091840330917C039A
:1011F00023E0230F2D3758F50196A11DB11D209333
:101200007C038093810390938203A0938303B09324
:10121000840380917D0390917E03A0917F03B09120
:1012200080030196A11DB11D80937D0390937E03E1
:10123000A0937F03B0938003BF91AF919F918F9153
:101240003F912F910F900FBE0F901F90189526E899
:10125000230F0296A11DB11DD2CF1F920F920FB680
:101260000F9211240BB60F922F933F934F935F93DE
:101270006F937F938F939F93AF93BF93EF93FF935E
:1012800048E251E064E271E090E080E00E9455069F
:10129000FF91EF91BF91AF919F918F917F916F914E
:1012A0005F914F913F912F910F900BBE0F900FBE0A
:1012B0000F901F9018951F920F920FB60F92112446
:1012C0000BB60F922F933F934F935F936F937F9340
:1012D0008F939F93AF93BF93EF93FF9348EA50E0B0
:1012E00064EA70E083E090E00E945506FF91EF9180
:1012F000BF91AF919F918F917F916F915F914F912E
:101300003F912F910F900BBE0F900FBE0F901F902B
:1013100018951F920F920FB60F9211240BB60F92D1
:101320002F933F934F935F936F937F938F939F93ED
:10133000AF93BF93EF93FF9348E950E064E970E007
:1013400082E090E00E945506FF91EF91BF91AF912E
:101350009F918F917F916F915F914F913F912F91CD
:101360000F900BBE0F900FBE0F901F9018951F92FD
:101370000F920FB60F9211240BB60F922F933F933B
:101380004F935F936F937F938F939F93AF93BF938D
:10139000EF93FF9348E850E064E870E081E090E06C
:1013A0000E945506FF91EF91BF91AF919F918F9150
:1013B0007F916F915F914F913F912F910F900BBE55
:1013C0000F900FBE0F901F901895109288031092E7
:1013D000870388EE93E0A0E0B0E0809389039093C8
:1013E0008A03A0938B03B0938C0384E092E09093E4
:1013F00086038093850385EC90E09093920380931D
:10140000910384EC90E0909394038093930380EC99
:1014100090E0909396038093950381EC90E09093F5
:1014200098038093970382EC90E090939A038093C3
:10143000990386EC90E090939C0380939B03109219
:101440009E0310929F031092A0031092A1038BE0C1
:101450008093BB0486E18093BC04E1E7F2E0E49171
:10146000E093BD04EBE2F2E0E491E093BE0480E897
:101470009EE3A0E0B0E08093C3049093C404A093E3
:10148000C504B093C6048091B204803398F491E00F
:10149000980F9093B2048093B30490E0FC01EE0F98
:1014A000FF1FE80FF91FEE5DFB4F88EB9BE0928377
:1014B000818308958FEF8093B3040895789484B561
:1014C000826084BD84B5816084BD85B5826085BD40
:1014D00085B5816085BD80916E00816080936E00CE
:1014E00010928100809181008260809381008091C0
:1014F0008100816080938100809180008160809371
:1015000080008091B10084608093B1008091B00030
:1015100081608093B00080919100826080939100FF
:101520008091910081608093910080919000816012
:10153000809390008091A10082608093A1008091AF
:10154000A10081608093A1008091A00081608093C0
:10155000A00080912101826080932101809121016E
:10156000816080932101809120018160809320011E
:1015700080917A00846080937A0080917A00826002
:1015800080937A0080917A00816080937A008091C4
:101590007A00806880937A001092C100E0919503F0
:1015A000F091960382E08083E0919103F0919203A1
:1015B0001082E0919303F09194038FEC808310925A
:1015C0009D03E0919903F0919A0386E08083E09176
:1015D0009703F0919803808180618083E091970365
:1015E000F0919803808188608083E0919703F09167
:1015F0009803808180688083E0919703F09198033D
:1016000080818F7D808362E08091BB040E94E7032C
:101610002FB7F8948091810390918203A091830366
:10162000B09184032FBF805D9740A109B1098093D9
:10163000BF049093C004A093C104B093C20487E395
:101640008093C80461E089E00E94E70361E082E0E2
:101650000E94E7038091B304803308F052C061E038
:101660008AE00E94E7038091B304282F30E0F9015B
:10167000EE0FFF1FE20FF31FEE5DFB4F9081907C9A
:101680009A6090831092B4041092B5042CE0622FFB
:101690000E940410829FB001112430E020E0AB01D1
:1016A000420F531FFA01EE0FFF1FE40FF51FEE5D0F
:1016B000FB4F908196FD17C02F5F3F4F2C303105B7
:1016C00071F7813009F043C01092800082E080936E
:1016D00081001092850010928400B19A80916F0071
:1016E000826080936F00E091B3048E2F90E0FC0144
:1016F000EE0FFF1FE80FF91FEE5DFB4F8081806446
:10170000808390E080E00E948A0110E44CE2842E05
:1017100099249394A12CB12C60ED77E080E090E0C7
:101720000E9414050E944605882351F08091BC0454
:101730008B3030F08D30B8F18551823008F465C0BF
:10174000412C512C30EC632E3FE7732E4AC082307F
:1017500061F4109290008093910010929500109285
:10176000940088BB80937100BECF833069F41092DF
:10177000A00082E08093A1001092A5001092A40026
:1017800089BB80937200AFCF8111ADCF1092200141
:1017900082E08093210110922501109224018ABBDE
:1017A00080937300A0CF6091B70470E090E080E078
:1017B0000E94DD0E2DEC3CEC4CEC5DE30E94920FA0
:1017C0006B017C016091B60470E090E080E00E94C3
:1017D000DD0E9B01AC01C701B6010E94C90D2B01B2
:1017E0003C010E944605882309F474C08091BC0422
:1017F0008C3009F476C0D8F48B3091F1C12CD12C07
:1018000090ECE92E9FE7F92E55C06091B6047091D7
:10181000B70476276727762790E080E00E94DB0EEA
:101820002DEC3CEC4CEC5DE30E94920FD8CF85513F
:10183000823020F7C091B8046C2F70E0762F6627B5
:1018400066277F778091B904682B90E080E00E9442
:10185000DB0E2DEC3CEC4CEC5DE30E94920F5DC086
:101860006091B80470E090E080E00E94DB0E6B01B4
:101870007C01C091B904C7FF0AC0AC019B0160E0C4
:1018800070E080E89FEB0E94C80D6B017C01CF7077
:101890006C2F70E090E080E00E94DD0E2DEC3CECBF
:1018A0004CEC5DE30E94920FA70196010E94C90DC6
:1018B0006B017C01A3019201C301B2010E94FF0FE1
:1018C000811108C0A7019601C701B6010E94FF0F50
:1018D000882361F181E292E00E9481070E942A033D
:1018E0001BCFC091B8046C2F70E090E080E00E94A4
:1018F000DB0E6B017C016091B9046F7070E090E0C9
:1019000080E00E94DD0E2DEC3CEC4CEC5DE30E948F
:10191000920FA70196010E94C90D6B017C01C7FFC0
:10192000C9CFF7FAF094F7F8F094C4CF81E492E0CD
:101930000E940F0742E0C301B2010E94A7078DE495
:1019400092E00E940F0781E592E00E940F0742E0BB
:10195000C701B6010E94A70780E692E00E948107B6
:1019600020E030E040E252E4C301B2010E94350EB3
:1019700087FF63C06FEF70E089E00E94180485E67E
:1019800092E00E94810720E030E048EC51E4C7017A
:10199000B6010E948D0F18160CF057C08AE590E032
:1019A0000E948A018BE992E00E948107CAE5D0E09B
:1019B00080917B00877F80937B0010937C008091D7
:1019C0007A00806480937A0080917A0086FDFCCF53
:1019D000E090780020917900F22E83EC92E00E9452
:1019E0000F07C7010E948F0788ECE816F104C4F5C1
:1019F0006FEF70E082E00E94180483EE92E00E9494
:101A00008107EE24EA94F12C89E493E00E940F0709
:101A1000BE01DD0F880B990B4AE00E941C078DE583
:101A200093E00E940F07C7010E948F0764E670E0F1
:101A300080E090E00E94140551CF70E060E089E002
:101A40000E94180480E892E09CCF90E080E00E9421
:101A50008A018FEA92E00E948107D0E0C0E0A8CF1F
:101A600085EFE81681E0F80664F070E060E082E05F
:101A70000E94180488E093E00E948107F12CE12C79
:101A8000C3CF9701FF0C440B550B285C310941096A
:101A90005109A1E0BFEF0E94920DA50194010E949F
:101AA000650D29013A018FEF480E511C611C711C14
:101AB0007201B20182E00E9418048CE293E00E945D
:101AC0000F07C2010E948F079FCF052E97FB1EF4C0
:101AD00000940E947C0D57FD07D00E94970D07FCD3
:101AE00003D04EF40C947C0D509540953095219583
:101AF0003F4F4F4F5F4F089590958095709561953A
:101B00007F4F8F4F9F4F08950E94B90DA59F900D55
:101B1000B49F900DA49F800D911D11240895B7FFCF
:101B20000C94840D0E94840D821B930B0895A1E2F6
:101B30001A2EAA1BBB1BFD010DC0AA1FBB1FEE1F47
:101B4000FF1FA217B307E407F50720F0A21BB30B92
:101B5000E40BF50B661F771F881F991F1A9469F70E
:101B600060957095809590959B01AC01BD01CF016A
:101B70000895A29FB001B39FC001A39F700D811D66
:101B80001124911DB29F700D811D1124911D089586
:101B90005058BB27AA270E94E00D0C94530F0E94B7
:101BA000450F38F00E944C0F20F039F49F3F19F494
:101BB00026F40C94420F0EF4E095E7FB0C943C0FD6
:101BC000E92F0E94640F58F3BA176207730784075E
:101BD000950720F079F4A6F50C94860F0EF4E095A5
:101BE0000B2EBA2FA02D0B01B90190010C01CA01D7
:101BF000A0011124FF27591B99F0593F50F4503E82
:101C000068F11A16F040A22F232F342F4427585F73
:101C1000F3CF469537952795A795F0405395C9F78B
:101C20007EF41F16BA0B620B730B840BBAF0915043
:101C3000A1F0FF0FBB1F661F771F881FC2F70EC0E2
:101C4000BA0F621F731F841F48F4879577956795B5
:101C5000B795F7959E3F08F0B0CF9395880F08F0A1
:101C60009927EE0F9795879508950E94180F08F40D
:101C700081E008950E944E0E0C94530F0E944C0F69
:101C800058F00E94450F40F029F45F3F29F00C9472
:101C90003C0F51110C94870F0C94420F0E94640F5B
:101CA00068F39923B1F3552391F3951B550BBB278B
:101CB000AA2762177307840738F09F5F5F4F220FD0
:101CC000331F441FAA1FA9F335D00E2E3AF0E0E8C7
:101CD00032D091505040E695001CCAF72BD0FE2F11
:101CE00029D0660F771F881FBB1F261737074807A5
:101CF000AB07B0E809F0BB0B802DBF01FF2793585D
:101D00005F4F3AF09E3F510578F00C943C0F0C94D5
:101D1000870F5F3FE4F3983ED4F3869577956795F8
:101D2000B795F7959F5FC9F7880F911D9695879591
:101D300097F90895E1E0660F771F881FBB1F6217B0
:101D400073078407BA0720F0621B730B840BBA0B6E
:101D5000EE1F88F7E09508950E946C0F88F09F575A
:101D600098F0B92F9927B751B0F0E1F0660F771FBF
:101D7000881F991F1AF0BA95C9F714C0B13091F0B5
:101D80000E94860FB1E008950C94860F672F782F7C
:101D90008827B85F39F0B93FCCF38695779567957A
:101DA000B395D9F73EF490958095709561957F4FE6
:101DB0008F4F9F4F0895E89409C097FB3EF490958C
:101DC0008095709561957F4F8F4F9F4F9923A9F014
:101DD000F92F96E9BB279395F695879577956795A3
:101DE000B795F111F8CFFAF4BB0F11F460FF1BC0E7
:101DF0006F5F7F4F8F4F9F4F16C0882311F096E97A
:101E000011C0772321F09EE8872F762F05C0662327
:101E100071F096E8862F70E060E02AF09A95660FE0
:101E2000771F881FDAF7880F9695879597F9089599
:101E3000990F0008550FAA0BE0E8FEEF16161706DB
:101E4000E807F907C0F012161306E407F50798F043
:101E5000621B730B840B950B39F40A2661F0232B5C
:101E6000242B252B21F408950A2609F4A140A695D8
:101E70008FEF811D811D089597F99F6780E870E0BD
:101E800060E008959FEF80EC089500240A941616F0
:101E9000170618060906089500240A941216130658
:101EA000140605060895092E0394000C11F48823E6
:101EB00052F0BB0F40F4BF2B11F460FF04C06F5F02
:101EC0007F4F8F4F9F4F089557FD9058440F551FD8
:101ED00059F05F3F71F04795880F97FB991F61F0AC
:101EE0009F3F79F087950895121613061406551F23
:101EF000F2CF4695F1DF08C0161617061806991F8F
:101F0000F1CF86957105610508940895E894BB2783
:101F100066277727CB0197F908950E94180F08F4D8
:101F20008FEF08950E94A50F0C94530F0E94450F48
:101F300038F00E944C0F20F0952311F00C943C0FC8
:101F40000C94420F11240C94870F0E94640F70F3BD
:101F5000959FC1F3950F50E0551F629FF001729F4E
:101F6000BB27F00DB11D639FAA27F00DB11DAA1F5D
:101F7000649F6627B00DA11D661F829F2227B00DAA
:101F8000A11D621F739FB00DA11D621F839FA00D35
:101F9000611D221F749F3327A00D611D231F849F85
:101FA000600D211D822F762F6A2F11249F575040DC
:101FB0009AF0F1F088234AF0EE0FFF1FBB1F661F57
:101FC000771F881F91505040A9F79E3F510580F020
:101FD0000C943C0F0C94870F5F3FE4F3983ED4F3CE
:101FE000869577956795B795F795E7959F5FC1F7C4
:101FF000FE2B880F911D9695879597F908950E945D
:10200000180F880B990B0895991B79E004C0991F4C
:10201000961708F0961B881F7A95C9F78095089542
:10202000EE0FFF1F881F8BBF0790F691E02D1994CC
:04203000F894FFCF52
:1020340000000000BD02270254020A038502630265
:1020440077020D0A006E616E00696E66006F766637
:1020540000C38963686563206465206C61206C65D6
:1020640063747572652064752044485432322021AB
:102074000048756D69646974C3A93A200020250974
:102084000054656D70C3A97261747572653A20005D
:1020940020C2B04300506F6D706520642761727276
:1020A4006F736167653A204143544956C3894500BB
:1020B400506F6D70652064276172726F736167651C
:1020C4003A20C3895445494E54450056656E746997
:1020D4006C61746575723A204F55564552540056DA
:1020E400656E74696C61746575723A204645524D2B
:1020F400C3890056616C657572206465206C61202B
:1021040070686F746F72C3A973697374616E636569
:102114003A20004C45443A20414C4C554DC3894526
:102124002028656E7669726F6E6E656D656E7420BB
:10213400736F6D62726529004C45443A20C389541B
:1021440045494E544520286C756D69C3A8726520B5
:10215400737566666973616E746529004C45443A0B
:1021640020494E54454E534954C38920414A55533E
:1021740054C3894520C3A02000506F736974696FEC
:102184006E20647520736572766F3A2000C2B009C0
:10219400496E74656E736974C3A9206465206C61AB
:0821A400204C45443A200000E4
:00000001FF
